:1000000012C0189518951895189518951895189563
:100010001895189518951895189518951895189578
:100020001895189518958FE58DBFC8E3E0E24E2E20
:1000300084E08EBFD4E0F4E05F2EA89584B7082E4C
:10004000877F84BF88E1992781BD91BDEEEFF3E002
:10005000A0E6B0E088278D933197E9F782D1662436
:100060006CD1A198A298A398A4988CE0C2D105D095
:100070004BD0B5D0FCCFF894FFCF8DD210EDA1D2EC
:1000800010E09FD288D211ED9CD2BAD2A0E6B0E0A7
:100090001C93B6D2A1E6B0E01C93B0D2A2E6B0E0C9
:1000A0001C9386D290916000D5D1A0E6B0E08C93ED
:1000B00090916100CFD1A1E6B0E08C939091620065
:1000C000C9D1A2E6B0E08C93009160000B3310F030
:1000D00009F001C003C080E08093600000916100DE
:1000E0000B3310F009F001C003C080E08093610081
:1000F00000916200073110F009F001C004C080E0F7
:1001000080936200AFD008959C9B01C004D09C995D
:1001100001C029D008958FE711E01ED1E6E3F6E093
:1001200006D1E2E6F0E0A8E0B4E0DBD1F8D0EEE3FF
:10013000F6E0FDD0E1E6F0E0A8E0B4E0D2D1EFD007
:10014000EEE3F6E0F4D0E0E6F0E0A8E0B4E0C9D1F8
:10015000E6D0E0E4F6E0EBD08FEB16E0FDD0E8E48B
:10016000F6E0E5D0089500916200003009F003C088
:100170008CE080936200009162000C3010F009F076
:1001800001C005C0A2E6B0E08C918C508C938FE743
:1001900011E0E2D0E6E3F6E0CAD0E2E6F0E0A8E063
:1001A000B4E09FD1BCD0EEE3F6E0C1D0E1E6F0E0F0
:1001B000A8E0B4E096D1B3D0EEE3F6E0B8D0E0E644
:1001C000F0E0A8E0B4E08DD1AAD0E0E4F6E0AFD052
:1001D0008FEB16E0C1D0EEE4F6E0A9D00895A19827
:1001E000A3E6B0E09C9197FF04C0999B0EC09F7757
:1001F0009C9399990AC08EE19F9390E03ED19F9184
:10020000999903C090689C932DD0A298A3E6B0E082
:100210009C9196FF04C09A9B0EC09F7B9C939A99D9
:100220000AC08EE19F9390E028D19F919A9903C0D4
:1002300090649C9336D0A398A3E6B0E09C9195FF80
:1002400004C09B9B0EC09F7D9C939B990AC08EE12E
:100250009F9390E012D19F919B9903C090629C93D1
:100260003FD00895A0E6B0E08C918F5F8C93009111
:1002700060000B3310F009F001C003C080E08093F0
:10028000600080916000E0D0A0E6B0E08C9383D164
:1002900010ED97D110E095D11091600092D188D1E6
:1002A0000895A1E6B0E08C918F5F8C93009161007E
:1002B0000B3310F009F001C003C080E080936100AF
:1002C00080916100C1D0A1E6B0E08C9364D110EDC3
:1002D00078D111E076D11091610073D169D1089580
:1002E000A2E6B0E08C918F5F8C93009162000731A1
:1002F00010F009F001C003C080E08093620080919B
:100300006200A2D0A2E6B0E08C9345D110ED59D1A5
:1003100012E057D11091620054D14AD10895A8E05B
:10032000B4E08D91882311F05ED0FBCF0895B9D051
:10033000802D11F058D0FBCF089581E05AD00ED017
:1003400080E857C08FE7213039F08FEB223021F061
:100350008FE8233009F08FEC810F4BC083E09927A1
:100360008CC08AEF90E089D08D9A8C9A8B9A8A9A69
:10037000899A889A909885E090E07FD09198959896
:100380009498939A929A919AEF93FF93E5E1F0E013
:1003900068D0FF91EF9191986DD0919AEF93FF9370
:1003A000E5E1F0E05ED0FF91EF91919863D0919AF2
:1003B000EF93FF93E5E1F0E054D0FF91EF91919836
:1003C00059D09298919AEF93FF93E5E1F0E049D0EC
:1003D000FF91EF9191984ED088E20BD08EE009D03A
:1003E00086E007D00895909A829505D004D042D037
:1003F00008959098F9CF859510F4929A01C092983B
:10040000859510F4939A01C09398859510F4949A69
:1004100001C09498859510F4959A01C09598919A89
:10042000EF93FF93E5E1F0E01CD0FF91EF919198FD
:100430000895982F82958F70805D8D939F70905D49
:100440009D9388278C9308954AE0082F8FD00295BA
:10045000802B0895892F8F70905110F0865FFCCF0C
:1004600008953197F1F70895689462F80895E89433
:1004700062F8089581E090E000C0EF93FF93EE27CB
:10048000E82BE92B31F0EAEFF0E03197F1F7019733
:10049000D1F7FF91EF910895019111912191308150
:1004A0000895C895319600200895000F111F221F4E
:1004B000331F089500951095209530950F5F1F4FBD
:1004C0002F4F3F4F0895019110810DC0E5DF0DC002
:1004D000E3DF10C00191108117FF05C03FEF2FEF40
:1004E00004C0008111272227332737FF03C0E2DF32
:1004F0008DE28D93CF92DF92EF92AA24BB24CC247D
:10050000DD24EE2440E2EAE0FF2755E093E380811A
:10051000890F87FD9F7083FD907F891B81935A957A
:10052000A9F7C3DFAA1CBB1CCC1CDD1CEE1C4A9522
:1005300051F7E894EFE0FF2782910BD0EB30E0F722
:100540001EF068948A2D09D04D93EF90DF90CF90E4
:100550000895982F829501D0892F8F70805D26F0A5
:10056000803309F4089568948D930895FF93881B50
:10057000F9E0001FFA9511F4FF910895881F841B7C
:1005800018F4840F8894F5CF0894F3CF8F988E9841
:100590009798969808958E9A8F9803D08E9801D048
:1005A0008F9A000000000000000000000000089585
:1005B0008E9A8F9AF6DF8E98869BFECFF2DF8F9809
:1005C000F0CF0894111F01C0110F69F08E9A18F432
:1005D00000008F9802C08F9A00C0E3DF8E98869B40
:1005E000FECFDFDFF1CF8E9A8F98DBDF8E98869B70
:1005F000FECFE8948799689462F8D3CF089401C03D
:100600008894331F11E08E9A8F98CBDF8E98869B4B
:10061000FECFC7DF889487990894111FA0F78E9AA0
:10062000379510F48F9801C08F9ABBDF8E98869B08
:10063000FECFB7DF089554696D65203D20003A0074
:1006400020202020202000002832342900002831DA
:04065000322900004B
:00000001FF
